{
  "_format": "hh-sol-artifact-1",
  "contractName": "YouTube",
  "sourceName": "contracts/YouTube.sol",
  "abi": [
    {
      "inputs": [],
      "stateMutability": "nonpayable",
      "type": "constructor"
    },
    {
      "anonymous": false,
      "inputs": [
        {
          "indexed": false,
          "internalType": "uint256",
          "name": "id",
          "type": "uint256"
        },
        {
          "indexed": false,
          "internalType": "string",
          "name": "hash",
          "type": "string"
        },
        {
          "indexed": false,
          "internalType": "string",
          "name": "title",
          "type": "string"
        },
        {
          "indexed": false,
          "internalType": "string",
          "name": "description",
          "type": "string"
        },
        {
          "indexed": false,
          "internalType": "string",
          "name": "location",
          "type": "string"
        },
        {
          "indexed": false,
          "internalType": "string",
          "name": "category",
          "type": "string"
        },
        {
          "indexed": false,
          "internalType": "string",
          "name": "thumbnailHash",
          "type": "string"
        },
        {
          "indexed": false,
          "internalType": "string",
          "name": "date",
          "type": "string"
        },
        {
          "indexed": false,
          "internalType": "address",
          "name": "author",
          "type": "address"
        }
      ],
      "name": "VideoUploaded",
      "type": "event"
    },
    {
      "inputs": [],
      "name": "name",
      "outputs": [
        {
          "internalType": "string",
          "name": "",
          "type": "string"
        }
      ],
      "stateMutability": "view",
      "type": "function"
    },
    {
      "inputs": [
        {
          "internalType": "string",
          "name": "_videoHash",
          "type": "string"
        },
        {
          "internalType": "string",
          "name": "_title",
          "type": "string"
        },
        {
          "internalType": "string",
          "name": "_description",
          "type": "string"
        },
        {
          "internalType": "string",
          "name": "_location",
          "type": "string"
        },
        {
          "internalType": "string",
          "name": "_category",
          "type": "string"
        },
        {
          "internalType": "string",
          "name": "_thumbnailHash",
          "type": "string"
        },
        {
          "internalType": "string",
          "name": "_date",
          "type": "string"
        }
      ],
      "name": "uploadVideo",
      "outputs": [],
      "stateMutability": "nonpayable",
      "type": "function"
    },
    {
      "inputs": [],
      "name": "videoCount",
      "outputs": [
        {
          "internalType": "uint256",
          "name": "",
          "type": "uint256"
        }
      ],
      "stateMutability": "view",
      "type": "function"
    },
    {
      "inputs": [
        {
          "internalType": "uint256",
          "name": "",
          "type": "uint256"
        }
      ],
      "name": "videos",
      "outputs": [
        {
          "internalType": "uint256",
          "name": "id",
          "type": "uint256"
        },
        {
          "internalType": "string",
          "name": "hash",
          "type": "string"
        },
        {
          "internalType": "string",
          "name": "title",
          "type": "string"
        },
        {
          "internalType": "string",
          "name": "description",
          "type": "string"
        },
        {
          "internalType": "string",
          "name": "location",
          "type": "string"
        },
        {
          "internalType": "string",
          "name": "category",
          "type": "string"
        },
        {
          "internalType": "string",
          "name": "thumbnailHash",
          "type": "string"
        },
        {
          "internalType": "string",
          "name": "date",
          "type": "string"
        },
        {
          "internalType": "address",
          "name": "author",
          "type": "address"
        }
      ],
      "stateMutability": "view",
      "type": "function"
    }
  ],
  "bytecode": "0x6080604052600080556040518060400160405280600781526020017f596f757475626500000000000000000000000000000000000000000000000000815250600190816200004e9190620002dd565b503480156200005c57600080fd5b50620003c4565b600081519050919050565b7f4e487b7100000000000000000000000000000000000000000000000000000000600052604160045260246000fd5b7f4e487b7100000000000000000000000000000000000000000000000000000000600052602260045260246000fd5b60006002820490506001821680620000e557607f821691505b602082108103620000fb57620000fa6200009d565b5b50919050565b60008190508160005260206000209050919050565b60006020601f8301049050919050565b600082821b905092915050565b600060088302620001657fffffffffffffffffffffffffffffffffffffffffffffffffffffffffffffffff8262000126565b62000171868362000126565b95508019841693508086168417925050509392505050565b6000819050919050565b6000819050919050565b6000620001be620001b8620001b28462000189565b62000193565b62000189565b9050919050565b6000819050919050565b620001da836200019d565b620001f2620001e982620001c5565b84845462000133565b825550505050565b600090565b62000209620001fa565b62000216818484620001cf565b505050565b5b818110156200023e5762000232600082620001ff565b6001810190506200021c565b5050565b601f8211156200028d57620002578162000101565b620002628462000116565b8101602085101562000272578190505b6200028a620002818562000116565b8301826200021b565b50505b505050565b600082821c905092915050565b6000620002b26000198460080262000292565b1980831691505092915050565b6000620002cd83836200029f565b9150826002028217905092915050565b620002e88262000063565b67ffffffffffffffff8111156200030457620003036200006e565b5b620003108254620000cc565b6200031d82828562000242565b600060209050601f83116001811462000355576000841562000340578287015190505b6200034c8582620002bf565b865550620003bc565b601f198416620003658662000101565b60005b828110156200038f5784890151825560018201915060208501945060208101905062000368565b86831015620003af5784890151620003ab601f8916826200029f565b8355505b6001600288020188555050505b505050505050565b61102c80620003d46000396000f3fe608060405234801561001057600080fd5b506004361061004c5760003560e01c806306fdde0314610051578063a1df8fa41461006f578063c61b5f4c1461008b578063e6821bf5146100a9575b600080fd5b6100596100e1565b6040516100669190610844565b60405180910390f35b610089600480360381019061008491906109af565b61016f565b005b610093610388565b6040516100a09190610b2e565b60405180910390f35b6100c360048036038101906100be9190610b75565b61038e565b6040516100d899989796959493929190610be3565b60405180910390f35b600180546100ee90610cd0565b80601f016020809104026020016040519081016040528092919081815260200182805461011a90610cd0565b80156101675780601f1061013c57610100808354040283529160200191610167565b820191906000526020600020905b81548152906001019060200180831161014a57829003601f168201915b505050505081565b600087511161017d57600080fd5b600086511161018b57600080fd5b600073ffffffffffffffffffffffffffffffffffffffff163373ffffffffffffffffffffffffffffffffffffffff16036101c457600080fd5b6000808154809291906101d690610d30565b919050555060405180610120016040528060005481526020018881526020018781526020018681526020018581526020018481526020018381526020018281526020013373ffffffffffffffffffffffffffffffffffffffff1681525060026000805481526020019081526020016000206000820151816000015560208201518160010190816102669190610f24565b50604082015181600201908161027c9190610f24565b5060608201518160030190816102929190610f24565b5060808201518160040190816102a89190610f24565b5060a08201518160050190816102be9190610f24565b5060c08201518160060190816102d49190610f24565b5060e08201518160070190816102ea9190610f24565b506101008201518160080160006101000a81548173ffffffffffffffffffffffffffffffffffffffff021916908373ffffffffffffffffffffffffffffffffffffffff1602179055509050507f0b0639108adcb9c8f8ce68f9c4abb1e07cd8fa50cc559b5a55a875a79b579f46600054888888888888883360405161037799989796959493929190610be3565b60405180910390a150505050505050565b60005481565b60026020528060005260406000206000915090508060000154908060010180546103b790610cd0565b80601f01602080910402602001604051908101604052809291908181526020018280546103e390610cd0565b80156104305780601f1061040557610100808354040283529160200191610430565b820191906000526020600020905b81548152906001019060200180831161041357829003601f168201915b50505050509080600201805461044590610cd0565b80601f016020809104026020016040519081016040528092919081815260200182805461047190610cd0565b80156104be5780601f10610493576101008083540402835291602001916104be565b820191906000526020600020905b8154815290600101906020018083116104a157829003601f168201915b5050505050908060030180546104d390610cd0565b80601f01602080910402602001604051908101604052809291908181526020018280546104ff90610cd0565b801561054c5780601f106105215761010080835404028352916020019161054c565b820191906000526020600020905b81548152906001019060200180831161052f57829003601f168201915b50505050509080600401805461056190610cd0565b80601f016020809104026020016040519081016040528092919081815260200182805461058d90610cd0565b80156105da5780601f106105af576101008083540402835291602001916105da565b820191906000526020600020905b8154815290600101906020018083116105bd57829003601f168201915b5050505050908060050180546105ef90610cd0565b80601f016020809104026020016040519081016040528092919081815260200182805461061b90610cd0565b80156106685780601f1061063d57610100808354040283529160200191610668565b820191906000526020600020905b81548152906001019060200180831161064b57829003601f168201915b50505050509080600601805461067d90610cd0565b80601f01602080910402602001604051908101604052809291908181526020018280546106a990610cd0565b80156106f65780601f106106cb576101008083540402835291602001916106f6565b820191906000526020600020905b8154815290600101906020018083116106d957829003601f168201915b50505050509080600701805461070b90610cd0565b80601f016020809104026020016040519081016040528092919081815260200182805461073790610cd0565b80156107845780601f1061075957610100808354040283529160200191610784565b820191906000526020600020905b81548152906001019060200180831161076757829003601f168201915b5050505050908060080160009054906101000a900473ffffffffffffffffffffffffffffffffffffffff16905089565b600081519050919050565b600082825260208201905092915050565b60005b838110156107ee5780820151818401526020810190506107d3565b60008484015250505050565b6000601f19601f8301169050919050565b6000610816826107b4565b61082081856107bf565b93506108308185602086016107d0565b610839816107fa565b840191505092915050565b6000602082019050818103600083015261085e818461080b565b905092915050565b6000604051905090565b600080fd5b600080fd5b600080fd5b600080fd5b7f4e487b7100000000000000000000000000000000000000000000000000000000600052604160045260246000fd5b6108bc826107fa565b810181811067ffffffffffffffff821117156108db576108da610884565b5b80604052505050565b60006108ee610866565b90506108fa82826108b3565b919050565b600067ffffffffffffffff82111561091a57610919610884565b5b610923826107fa565b9050602081019050919050565b82818337600083830152505050565b600061095261094d846108ff565b6108e4565b90508281526020810184848401111561096e5761096d61087f565b5b610979848285610930565b509392505050565b600082601f8301126109965761099561087a565b5b81356109a684826020860161093f565b91505092915050565b600080600080600080600060e0888a0312156109ce576109cd610870565b5b600088013567ffffffffffffffff8111156109ec576109eb610875565b5b6109f88a828b01610981565b975050602088013567ffffffffffffffff811115610a1957610a18610875565b5b610a258a828b01610981565b965050604088013567ffffffffffffffff811115610a4657610a45610875565b5b610a528a828b01610981565b955050606088013567ffffffffffffffff811115610a7357610a72610875565b5b610a7f8a828b01610981565b945050608088013567ffffffffffffffff811115610aa057610a9f610875565b5b610aac8a828b01610981565b93505060a088013567ffffffffffffffff811115610acd57610acc610875565b5b610ad98a828b01610981565b92505060c088013567ffffffffffffffff811115610afa57610af9610875565b5b610b068a828b01610981565b91505092959891949750929550565b6000819050919050565b610b2881610b15565b82525050565b6000602082019050610b436000830184610b1f565b92915050565b610b5281610b15565b8114610b5d57600080fd5b50565b600081359050610b6f81610b49565b92915050565b600060208284031215610b8b57610b8a610870565b5b6000610b9984828501610b60565b91505092915050565b600073ffffffffffffffffffffffffffffffffffffffff82169050919050565b6000610bcd82610ba2565b9050919050565b610bdd81610bc2565b82525050565b600061012082019050610bf9600083018c610b1f565b8181036020830152610c0b818b61080b565b90508181036040830152610c1f818a61080b565b90508181036060830152610c33818961080b565b90508181036080830152610c47818861080b565b905081810360a0830152610c5b818761080b565b905081810360c0830152610c6f818661080b565b905081810360e0830152610c83818561080b565b9050610c93610100830184610bd4565b9a9950505050505050505050565b7f4e487b7100000000000000000000000000000000000000000000000000000000600052602260045260246000fd5b60006002820490506001821680610ce857607f821691505b602082108103610cfb57610cfa610ca1565b5b50919050565b7f4e487b7100000000000000000000000000000000000000000000000000000000600052601160045260246000fd5b6000610d3b82610b15565b91507fffffffffffffffffffffffffffffffffffffffffffffffffffffffffffffffff8203610d6d57610d6c610d01565b5b600182019050919050565b60008190508160005260206000209050919050565b60006020601f8301049050919050565b600082821b905092915050565b600060088302610dda7fffffffffffffffffffffffffffffffffffffffffffffffffffffffffffffffff82610d9d565b610de48683610d9d565b95508019841693508086168417925050509392505050565b6000819050919050565b6000610e21610e1c610e1784610b15565b610dfc565b610b15565b9050919050565b6000819050919050565b610e3b83610e06565b610e4f610e4782610e28565b848454610daa565b825550505050565b600090565b610e64610e57565b610e6f818484610e32565b505050565b5b81811015610e9357610e88600082610e5c565b600181019050610e75565b5050565b601f821115610ed857610ea981610d78565b610eb284610d8d565b81016020851015610ec1578190505b610ed5610ecd85610d8d565b830182610e74565b50505b505050565b600082821c905092915050565b6000610efb60001984600802610edd565b1980831691505092915050565b6000610f148383610eea565b9150826002028217905092915050565b610f2d826107b4565b67ffffffffffffffff811115610f4657610f45610884565b5b610f508254610cd0565b610f5b828285610e97565b600060209050601f831160018114610f8e5760008415610f7c578287015190505b610f868582610f08565b865550610fee565b601f198416610f9c86610d78565b60005b82811015610fc457848901518255600182019150602085019450602081019050610f9f565b86831015610fe15784890151610fdd601f891682610eea565b8355505b6001600288020188555050505b50505050505056fea264697066735822122053ca430542a1f6394d5367adc4c93300200c315e6688ae452b46df0802d2e69d64736f6c63430008130033",
  "linkReferences": {},
  "deployedLinkReferences": {}
}